:020000041000EA
:1000000000B50C4B00219960042159610A4919601F
:100010000A490B480160002159600121996001BC27
:10002000002800D0004707480749086003C880F34C
:10003000088808470000001800031F00180200038A
:10004000F40000180001001008ED00E000000000BE
:1000500000000000000000000000000000000000A0
:100060000000000000000000000000000000000090
:100070000000000000000000000000000000000080
:100080000000000000000000000000000000000070
:100090000000000000000000000000000000000060
:1000A0000000000000000000000000000000000050
:1000B0000000000000000000000000000000000040
:1000C0000000000000000000000000000000000030
:1000D0000000000000000000000000000000000020
:1000E0000000000000000000000000000000000010
:1000F0000000000000000000000000002CEC210DBA
:1001000000200420F7010010C3010010C5010010F9
:10011000C1010010C1010010C1010010C101001097
:10012000C1010010C1010010C101001035AF001065
:10013000C1010010C10100108BAF0010D5AF00103D
:10014000CD010010CD010010CD010010CD01001037
:10015000CD010010CD010010CD010010CD01001027
:10016000CD010010CD010010CD010010CD01001017
:10017000CD010010CD010010CD010010CD01001007
:10018000CD010010CD010010CD010010CD010010F7
:10019000CD010010CD010010CD010010CD010010E7
:1001A000CD010010CD010010CD010010CD010010D7
:1001B000CD010010CD010010CD010010CD010010C7
:1001C00000BE00BE00BE00BE00BE00BE00F04BF888
:1001D000103800BEF2EB88717CD20010A0D2001063
:1001E0003402001090A31AE700202149086006C8D5
:1001F00081F3088810471F48006800282FD10DA4FC
:100200000ECC002902D000F012F8F9E71A491B4A77
:10021000002000E001C19142FCD1194988471949E9
:1002200088471949884700BEFDE701C901C29A42C3
:10023000FBD37047A0D20010C0000020780D002032
:1002400058DF0010000004200000042058DF0010D8
:1002500000100420001004200000000070470B482C
:1002600004F04CFD0047EFF30580C0B2704700007A
:1002700008ED00E0000000D0780D0020E41D002013
:10028000153200101D110010D1310010575600001A
:1002900006005250ABB3605338CA001006005250EB
:1002A000861C030258CA0010060052505422A29D18
:1002B00060CA001005005250DE65F46858DF001077
:1002C000F8B5C0460448054B10B5834203D0044B33
:1002D000002B00D0984710BD780D0020780D00202D
:1002E0000000000006480749091A8B10C90FC918F9
:1002F00010B5491003D0044B002B00D0984710BD17
:10030000780D0020780D00200000000010B5074C8B
:100310002378002B09D1FFF7D5FF054B002B02D026
:10032000044800E000BF0123237010BD800E0020B0
:1003300000000000F0B90010054B10B5002B03D0F1
:100340000449054800E000BFFFF7CCFF10BDC046E0
:1003500000000000840E0020F0B9001030B583B01A
:100360000D2001F059FDD0231B06802292015A6214
:10037000D44B1868002201A908F006FE002808D016
:100380000198F8239B00984203DC0A2104F0E2FC68
:100390000190019C092C07DC002CE9DB092CE7D833
:1003A000A300C94AD3589F46FA239B009C42DFDA38
:1003B000083B9C42DCDDC54B9C466444062CD7D8E8
:1003C000A400C34B1B599F460E2CD1DCC14D01210B
:1003D000286808F045FDD0231B06802212019A618F
:1003E0008022D2005A618022D2045A6180221205F2
:1003F0005A61802292055A618022D2025A6180227B
:1004000092045A6180225A61802252059A612868BA
:1004100000230022002108F0A1FB002009F036FC97
:100420000134D1E700240E2CA2DCAA4D012128685A
:1004300008F016FDD0231B06802212019A6180224B
:10044000D2005A618022D2049A61802212055A6138
:10045000802292055A618022D2029A6180229204FF
:100460009A6180229A61802252059A61286800234D
:100470000022002108F072FB002009F007FC013483
:10048000D1E700240E2C00DD72E7924D012128688F
:1004900008F0E6FCD0231B06802212019A6180221C
:1004A000D2005A618022D2045A61802212055A6118
:1004B000802292059A618022D2025A61802292049F
:1004C0005A6180229A61802252055A61286800236D
:1004D0000022002108F042FB002009F0D7FB013484
:1004E000D0E700240E2C00DD42E77A4D0121286878
:1004F00008F0B6FCD0231B06802212019A618022EC
:10050000D2005A618022D2045A61802212055A61B7
:10051000802292055A618022D2025A61802292047E
:100520009A6180229A61802252055A6128680023CC
:100530000022002108F012FB002009F0A7FB013483
:10054000D0E700240E2C00DD12E7624D012128685F
:1005500008F086FCD0231B06802212019A618022BB
:10056000D2005A618022D2049A61802212055A6117
:10057000802292055A618022D2029A6180229204DE
:100580009A6180225A61802252055A6128680023AC
:100590000022002108F0E2FA002009F077FB013484
:1005A000D0E700240E2C00DDE2E64A4D0121286848
:1005B00008F056FCD0231B06802212019A6180228B
:1005C000D2005A618022D2045A61802212059A61B7
:1005D000802292055A618022D2025A6180229204BE
:1005E0009A6180225A61802252055A61286800234C
:1005F0000022002108F0B2FA002009F047FB013484
:10060000D0E700240E2C00DDB2E6324D012128682F
:1006100008F026FCD0231B06802212019A6180225A
:10062000D2005A618022D2045A61802212059A6156
:10063000802292055A618022D2025A61802292045D
:100640005A6180225A61802252055A61286800232B
:100650000022002108F082FA002009F017FB013483
:10066000D0E700240E2C00DD82E61A4D0121286817
:1006700008F0F6FBD0231B06802212019A6180222B
:10068000D2005A618022D2045A61802212055A6136
:10069000802292055A618022D2029A6180229204BD
:1006A0009A6180229A61802252059A61286800230B
:1006B0000022002108F052FA002009F0E7FA013484
:1006C000D0E7C046B41A0020F0B900101FFCFFFFAD
:1006D00018BA0010C01A002000240E2C00DD47E6D6
:1006E000D54D0121286808F0BBFBD0231B068022D2
:1006F00012019A618022D2005A618022D2045A618A
:10070000802212055A61802292055A618022D2020B
:100710005A61802292045A6180225A6180225205D5
:100720005A61286800230022002108F017FA0020EF
:1007300009F0ACFA0134D0E700240E2C00DD17E6F6
:10074000BD4D0121286808F08BFBD0231B068022B9
:1007500012019A618022D2005A618022D2045A6129
:10076000802212055A61802292055A618022D202AB
:100770005A61802292049A6180225A618022520535
:100780005A61286800230022002108F0E7F90020C0
:1007900009F07CFA0134D0E700240E2C00DDE7E5F7
:1007A000A54D0121286808F05BFBD0231B068022A1
:1007B00012019A618022D2005A618022D2045A61C9
:1007C000802212055A61802292055A618022D2024B
:1007D0005A61802292045A6180225A618022520515
:1007E0009A61286800230022002108F0B7F9002050
:1007F00009F04CFA0134D0E700240E2C00DDB7E5F7
:100800008D4D0121286808F02BFBD0231B06802288
:1008100012019A618022D2005A618022D2045A6168
:10082000802212055A61802292059A618022D202AA
:100830009A61802292045A6180225A618022520574
:100840005A61286800230022002108F087F900205F
:1008500009F01CFA0134D0E700240E2C00DD87E5F6
:10086000754D0121286808F0FBFAD0231B06802271
:1008700012019A618022D2005A618022D2049A61C8
:10088000802212055A61802292055A618022D2028A
:100890009A61802292045A6180225A618022520514
:1008A0005A61286800230022002108F057F900202F
:1008B00009F0ECF90134D0E700240E2C00DD57E5F7
:1008C0005D4D0121286808F0CBFAD0231B06802259
:1008D00012019A618022D2005A618022D2045A61A8
:1008E000802212059A61802292059A618022D202AA
:1008F0009A61802292045A6180225A6180225205B4
:100900005A61286800230022002108F027F90020FE
:1009100009F0BCF90134D0E700240E2C00DD27E5F6
:10092000454D0121286808F09BFAD0231B06802240
:1009300012019A618022D2005A618022D2049A6107
:10094000802212059A61802292055A618022D20289
:100950005A61802292045A6180225A618022520593
:100960005A61286800230022002108F0F7F80020CF
:1009700009F08CF90134D0E700240E2C00DDF7E4F7
:100980002D4D0121286808F06BFAD0231B06802228
:1009900012019A618022D2005A618022D2045A61E7
:1009A000802212059A61802292059A618022D202E9
:1009B0005A61802292045A6180225A618022520533
:1009C0009A61286800230022002108F0C7F800205F
:1009D00009F05CF90134D0E700240E2C00DDC7E4F7
:1009E000154D0121286808F03BFAD0231B06802210
:1009F00012019A618022D2005A618022D2045A6187
:100A0000802212059A61802292059A618022D20288
:100A10005A61802292045A6180225A6180225205D2
:100A20005A61286800230022002108F097F800206E
:100A300009F02CF90134D0E7C01A002030B583B09A
:100A40000D2001F0E9F9D0231B06802292015A62A1
:100A5000D44B1868002201A908F096FA002808D0A3
:100A60000198F8239B00984203DC0A2104F072F9F4
:100A70000191019C092C07DC002CE9DB092CE7D84B
:100A8000A300C94AD3589F46FA239B009C42DFDA51
:100A9000083B9C42DCDDC54B9C466444062CD7D801
:100AA000A400C34B1B599F460E2CD1DCC14D012124
:100AB000286808F0D5F9D0231B06802212015A615C
:100AC0008022D2009A618022D2045A6180221205CB
:100AD0005A61802292055A618022D2025A61802294
:100AE00092045A6180225A61802252059A612868D4
:100AF00000230022002108F031F8002009F0C6F898
:100B00000134D1E700240E2CA2DCAA4D0121286873
:100B100008F0A6F9D0231B06802212015A61802218
:100B2000D2009A618022D2049A61802212055A6111
:100B3000802292055A618022D2029A618022920418
:100B40009A6180229A61802252059A612868002366
:100B50000022002108F002F8002009F097F8013483
:100B6000D1E700240E2C00DD72E7924D01212868A8
:100B700008F076F9D0231B06802212015A618022E8
:100B8000D2009A618022D2045A61802212055A61F1
:100B9000802292059A618022D2025A6180229204B8
:100BA0005A6180229A61802252055A612868002386
:100BB0000022002107F0D2FF002009F067F801347D
:100BC000D0E700240E2C00DD42E77A4D0121286891
:100BD00008F046F9D0231B06802212015A618022B8
:100BE000D2009A618022D2045A61802212055A6191
:100BF000802292055A618022D2025A618022920498
:100C00009A6180229A61802252055A6128680023E5
:100C10000022002107F0A2FF002009F037F801347C
:100C2000D0E700240E2C00DD12E7624D0121286878
:100C300008F016F9D0231B06802212015A61802287
:100C4000D2009A618022D2049A61802212055A61F0
:100C5000802292055A618022D2029A6180229204F7
:100C60009A6180225A61802252055A6128680023C5
:100C70000022002107F072FF002009F007F801347C
:100C8000D0E700240E2C00DDE2E64A4D0121286861
:100C900008F0E6F8D0231B06802212015A61802258
:100CA000D2009A618022D2045A61802212059A6190
:100CB000802292055A618022D2025A6180229204D7
:100CC0009A6180225A61802252055A612868002365
:100CD0000022002107F042FF002008F0D7FF013476
:100CE000D0E700240E2C00DDB2E6324D0121286849
:100CF00008F0B6F8D0231B06802212015A61802228
:100D0000D2009A618022D2045A61802212059A612F
:100D1000802292055A618022D2025A618022920476
:100D20005A6180225A61802252055A612868002344
:100D30000022002107F012FF002008F0A7FF013475
:100D4000D0E700240E2C00DD82E61A4D0121286830
:100D500008F086F8D0231B06802212015A618022F7
:100D6000D2009A618022D2045A61802212055A610F
:100D7000802292055A618022D2029A6180229204D6
:100D80009A6180229A61802252059A612868002324
:100D90000022002107F0E2FE002008F077FF013476
:100DA000D0E7C046B41A002034BA00101FFCFFFF81
:100DB0005CBA0010C01A002000240E2C00DD47E6AB
:100DC000D54D0121286808F04BF8D0231B0680225E
:100DD00012015A618022D2009A618022D2045A61A3
:100DE000802212055A61802292055A618022D20225
:100DF0005A61802292045A6180225A6180225205EF
:100E00005A61286800230022002107F0A7FE002075
:100E100008F03CFF0134D0E700240E2C00DD17E67B
:100E2000BD4D0121286808F01BF8D0231B06802245
:100E300012015A618022D2009A618022D2045A6142
:100E4000802212055A61802292055A618022D202C4
:100E50005A61802292049A6180225A61802252054E
:100E60005A61286800230022002107F077FE002045
:100E700008F00CFF0134D0E700240E2C00DDE7E57C
:100E8000A54D0121286807F0EBFFD0231B06802227
:100E900012015A618022D2009A618022D2045A61E2
:100EA000802212059A61802292059A618022D202E4
:100EB0009A61802292045A6180225A6180225205EE
:100EC0005A61286800230022002107F047FE002015
:100ED00008F0DCFE0134D0E700240E2C00DDB7E57D
:100EE0008D4D0121286807F0BBFFD0231B0680220F
:100EF00012015A618022D2009A618022D2045A6182
:100F0000802212055A61802292059A618022D202C3
:100F10009A61802292045A6180225A61802252058D
:100F20005A61286800230022002107F017FE0020E4
:100F300008F0ACFE0134D0E700240E2C00DD87E57C
:100F4000754D0121286807F08BFFD0231B068022F6
:100F500012015A618022D2009A618022D2049A61E1
:100F6000802212055A61802292055A618022D202A3
:100F70009A61802292045A6180225A61802252052D
:100F80005A61286800230022002107F0E7FD0020B5
:100F900008F07CFE0134D0E700240E2C00DD57E57C
:100FA0005D4D0121286807F05BFFD0231B068022DE
:100FB00012015A618022D2009A618022D2045A61C1
:100FC000802212059A61802292059A618022D202C3
:100FD0009A61802292045A6180225A6180225205CD
:100FE0005A61286800230022002107F0B7FD002085
:100FF00008F04CFE0134D0E700240E2C00DD27E57C
:10100000454D0121286807F02BFFD0231B068022C5
:1010100012015A618022D2009A618022D2049A6120
:10102000802212059A61802292055A618022D202A2
:101030005A61802292045A6180225A6180225205AC
:101040005A61286800230022002107F087FD002054
:1010500008F01CFE0134D0E700240E2C00DDF7E47C
:101060002D4D0121286807F0FBFED0231B068022AE
:1010700012015A618022D2009A618022D2045A6100
:10108000802212059A61802292059A618022D20202
:101090005A61802292045A6180225A61802252054C
:1010A0009A61286800230022002107F057FD0020E4
:1010B00008F0ECFD0134D0E700240E2C00DDC7E47D
:1010C000154D0121286807F0CBFED0231B06802296
:1010D00012015A618022D2009A618022D2045A61A0
:1010E000802212059A61802292059A618022D202A2
:1010F0005A61802292045A6180225A6180225205EC
:101100005A61286800230022002107F027FD0020F3
:1011100008F0BCFD0134D0E7C01A002070B582B0E1
:1011200004F018FC02E0642001F056FC002006F0F8
:10113000BDFA0028F7D07849784807F06DFB032105
:10114000022000F037FE0321032000F033FE0022CE
:101150000121022000F046FE00220121032000F0C0
:1011600041FE132000F058FE092000F055FE082033
:1011700000F052FED024240680231B03A3628023A8
:101180009B00A362013BFF3BA3620C2000F044FEE6
:10119000012000F041FE002000F03EFE062000F09D
:1011A0003BFE80235B01636202236362013B636257
:1011B0003F3363621A2000F02FFE1B2000F02CFE4C
:1011C0001D2000F029FE122000F026FE192000F05C
:1011D00023FE072000F020FE1C2000F01DFE18203A
:1011E00000F01AFE0B2000F017FE0A2000F014FE9B
:1011F0008023DB04636280231B05636280239B05DD
:1012000063628023DB02636280239B04636280232A
:10121000636280235B05636280235B0463628023D7
:101220001B0163628023DB00636203220021012033
:1012300007F055FC3A4B1860002804D000231A0030
:10124000190007F08BFC03220021012007F047FC66
:10125000344B1860002804D000231A00190007F04E
:101260007DFC03220021012007F039FC2E4B186081
:10127000002804D000231A00190007F06FFC002298
:1012800004210A2007F02BFC284B186000220421BF
:10129000022007F024FC264B1860002204210220C3
:1012A00007F01DFC234B186000220421022007F0E8
:1012B00016FC214B186080267600204B01930224F7
:1012C0000094002332001E491E4808F050F9002502
:1012D00001950094002332001B491C4808F047F98F
:1012E000019503230093002332001949194808F09F
:1012F0003EF901950094002380221749174808F011
:1013000036F901950094002380221549154808F00C
:101310002EF908F001FBFEE7A08601000805002079
:10132000C01A0020BC1A0020C81A0020B41A0020DD
:10133000B81A0020CC1A0020C41A0020B4190020CA
:1013400078BA0010B51B001088BA001041180010C0
:1013500098BA0010B9150010A4BA00105D0300106F
:10136000B0BA00103D0A0010F0B5D6464F464646CA
:10137000C0B582B00023019300249A46994698464E
:101380000027002600251FE06146002900D1002526
:10139000002A06D0002E04D101229446E1440136F1
:1013A00002E0002A00D10026002B06D0002F04D135
:1013B00001239C46E244013702E0002B00D10027C4
:1013C000012008F063FC0134C72C16DCD0231B0677
:1013D0005968C90C012002000A4094465A68520A12
:1013E00002405B681B0A03400842CDD0002DCBD1E0
:1013F00001218C46E0440135CAE74346002B14DD49
:101400004B46002B02DD5346002B02DC4B46002BE3
:1014100008DD624804F060FA02B01CBC90469946B0
:10142000A246F0BD5346002BF3DC4B46002B0FDDEC
:101430004346002B02DD5346002B02DC4346002BC3
:1014400003DD564804F048FAE6E75346002BF8DC83
:101450005346002B0FDD4B46002B02DD4346002B8D
:1014600002DC4B46002B03DD4C4804F035FAD3E791
:101470004346002BF8DC4346032B05DC4B46032B8D
:1014800002DC5346032B03DD454804F025FAC3E78D
:101490004346002B1ADC4B46002B40DC5346002B06
:1014A000BADD51463F4804F049FA5346012B60D05B
:1014B000022B68D0032BAFD11E33019300231A00F7
:1014C00001A93948006807F049FBA5E741463748BC
:1014D00004F034FA4346012B0DD0022B15D0032B18
:1014E0009AD10A33019300231A0001A930480068F9
:1014F00007F034FB90E70A3301932D4B1868002363
:10150000002201A907F02AFB86E70A330193284B42
:1015100018680023002201A907F020FB7CE7494658
:10152000244804F00BFA4B46012B0ED0022B16D0A8
:10153000032B00D070E71433019300231A0001A994
:101540001B48006807F00AFB66E714330193002389
:101550001A0001A91648006807F000FB5CE7143385
:10156000019300231A0001A91148006807F0F6FA58
:1015700052E71E33019300231A0001A90A480068AC
:1015800007F0ECFA48E71E33019300231A0001A983
:101590000548006807F0E2FA3EE7C046BCBA001012
:1015A000E4BA00104CBB0010CC1A002014BB001091
:1015B000B81A002030BB001010B5FFF7D5FE002090
:1015C00008F064FBF9E7F0B5C64600B5D024240660
:1015D00080235B01984663610227A7610126A6610B
:1015E00040256561012008F051FB43466361676156
:1015F000A661A561012008F049FB4346A36167612C
:101600006661A561012008F041FB4346A361A76123
:1016100066616561012008F039FB04BC9046F0BDAD
:10162000F0B5C64600B5D024240680235B01984659
:10163000A3610227A761012666614025656101203B
:1016400008F024FB4346A36167616661A561012040
:1016500008F01CFB434663616761A661A561012038
:1016600008F014FB43466361A761A6616561012030
:1016700008F00CFB04BC9046F0BD000010B582B031
:10168000134C00226946206807F073FB012008F024
:10169000FDFA104B019320680023002201A907F0F6
:1016A0005DFA142008F0F2FA0024FA235B009C4251
:1016B00003DCFFF788FF0134F7E70024FA235B001F
:1016C0009C4203DCFFF7ACFF0134F7E702B010BD2A
:1016D000C41A0020E603000030B583B0164B18682A
:1016E000002201A907F050FC002822D0019BF8221B
:1016F0009200934201DB114B1B68104A15689D4212
:1017000008DA5D1B13600024AC4212DAFFF75BFFBE
:101710000134F9E79D4209DDED1A084A13600024FF
:10172000AC4206DAFFF77CFF0134F9E7C82008F085
:10173000ADFA03B030BDC046B41A002070190020C5
:1017400030B583B01D4B1868002201A907F01CFCBE
:10175000002831D0019CF8239B009C4201DB184BF0
:101760001C68174B1D68A5420ADB17DD2D1B144BA7
:101770001C600024AC421FDAFFF752FF0134F9E786
:10178000651B29000F4804F0D9F80D4B1C6000249C
:10179000AC4211DAFFF717FF0134F9E7D0231B063B
:1017A000802252019A6102229A61013A9A613F3283
:1017B0009A61C82008F06AFA03B030BDB41A00205C
:1017C0006C19002068BB001010B584B0174B039350
:1017D000174C0023002203A9206807F0BFF9D0238B
:1017E0001B06802252019A6102229A61013A9A6193
:1017F0003F329A61FA20400008F048FA0D4B186811
:1018000007F0FAFF2068002202A907F0B2FA0A4B9B
:1018100001930A4B18680023002201A907F09EF9E2
:10182000142008F033FA04B010BDC046E7030000EE
:10183000B41A0020B4190020E6030000C41A0020E6
:1018400000B583B014E0474B0093474B1868002362
:101850000022694607F082F9012008F017FAFFF725
:101860003BFF424B186800230022002107F076F965
:101870003E4B1868012107F0F3FA3D4B186800222F
:1018800001A907F076FA019B0B2BDCD00C2B0FD0B3
:101890000D2B23D0152B2DD0162B42D0172B56D025
:1018A000324B186800230022002107F057F9DFE7C8
:1018B000304B00932C4B186800230022694607F038
:1018C0004DF9012008F0E2F9FFF73AFF274B1868BD
:1018D00000230022002107F041F9C9E7FFF774FF58
:1018E00017230193214B186800230022002107F0E1
:1018F00035F9BDE7F9239B0000931B4B18680023C3
:101900000022694607F02AF9012008F0BFF9FFF725
:101910005AFE164B186800230022002107F01EF91A
:10192000A6E7154B0093104B186800230022694668
:1019300007F014F9012008F0A9F9FFF771FE0B4B2D
:10194000186800230022002107F008F990E7FFF74C
:1019500095FE064B186800230022002107F0FEF8D0
:1019600086E7C046E2030000C41A0020C81A00201F
:10197000B81A0020E3030000E503000030B585B08D
:101980000B226A44022313700C4C00250095013B86
:101990004021200006F06CFF0A2008F077F900953E
:1019A000022303AA4021200006F06EFF6B46187B3D
:1019B00000025B7B184305B030BDC046080500201F
:1019C00030B585B00B226A44FE2313700C4C002501
:1019D0000095FD3B4021200006F04AFF0A2008F058
:1019E00055F90095022303AA4021200006F04CFF80
:1019F0006B46187B00025B7B184305B030BDC046C8
:101A00000805002030B585B00B226A44FB23137013
:101A10000C4C00250095FA3B4021200006F028FFE1
:101A20000A2008F033F90095022303AA4021200080
:101A300006F02AFF6B46187B00025B7B184305B05B
:101A400030BDC0460805002030B585B00B226A4481
:101A5000FC2313700C4C00250095FB3B402120001B
:101A600006F006FF0A2008F011F90095022303AAE8
:101A70004021200006F008FF6B46187B00025B7BCC
:101A8000184305B030BDC0460805002030B585B00C
:101A90000B226A44FD2313700C4C00250095FC3B7F
:101AA0004021200006F0E4FE0A2008F0EFF800953F
:101AB000022303AA4021200006F0E6FE6B46187BB5
:101AC00000025B7B184305B030BDC046080500200E
:101AD00030B585B00B226A4400241470164D009472
:101AE00001234021280006F0C3FE0A2008F0CEF8AA
:101AF0000094022303AA4021280006F0C5FE6B468D
:101B0000187B00025B7B184303F020FC00220B4B88
:101B100003F0AFFB00220A4B03F0ABFB0022094BA2
:101B200003F083FB03F056FC03F04AFD03F0C6FC10
:101B300003F024FC05B030BD080500200000F03E95
:101B400000A064400000444030B585B00B226A44D8
:101B500001231370144C002500954021200006F04D
:101B600087FE0A2008F092F80095022303AA40217C
:101B7000200006F089FE6B46187B00025B7B184351
:101B800003F0E4FB0022094B03F073FB0022084B37
:101B900003F06FFB03F01EFC03F012FD03F08EFC5C
:101BA00003F0ECFB05B030BD080500200000F03E5E
:101BB00000005940F0B5C64600B586B0714B0093A1
:101BC000FFF7DCFE8046FFF7FBFE0700FFF71AFF7A
:101BD0000400FFF739FF0500FFF758FF06004146F4
:101BE000694803F0ABFE3900684803F0A7FE3300F4
:101BF0002A002100664803F0A1FE37E0654C00236F
:101C000000226946206806F0A9FFFA20400008F08B
:101C10003DF82068002106F0F5FE4AE05D4C002307
:101C2000002204A9206806F099FF012008F02EF890
:101C30002068002203A907F0A7F900280FD0564B0F
:101C4000039A9A4261D100230293544B18680023EF
:101C50000022002106F082FF002008F075F84F4BAB
:101C6000186800230022002106F078FF4B4B18680B
:101C7000012107F0F5F8FFF72BFF03F067FB484A57
:101C8000484B03F0F6FA0022474B03F0D3FA03F077
:101C900075FB0590FFF758FF0490444B186800222D
:101CA00002A907F066F83B4B186807F03AFA0A28D1
:101CB000A4DC029B202BB1D01F2B2DD0212BCED109
:101CC0003B4B1868002201A907F053F8012007F0E8
:101CD000DDFF304C0023002201A9206806F03EFF02
:101CE000012007F0D3FF2068002203A907F04CF978
:101CF0000028B4D0284B039A9A4236D0254B186856
:101D0000002203A907F035F8A9E7224B1868002242
:101D100003A907F02EF8A2E71E4C0023002205A914
:101D2000206806F01BFF012007F0B0FF20680022AA
:101D300003A907F029F9002891D0174B039A9A427A
:101D400006D0144B1868002203A907F012F886E7A2
:101D500000230293114B186800230022002106F093
:101D6000FDFE002007F0F0FF79E7002302930B4B04
:101D7000186800230022002106F0F0FE002007F082
:101D8000E3FF6CE7E103000080BB0010A0BB001084
:101D9000B8BB0010B41A0020E7030000C81A0020E6
:101DA000CDCCCCCCCCCCFC3F00004040CC1A0020A9
:101DB000C41A002010B58300084A944663441C6886
:101DC00040226240C02414408022520113431C6010
:101DD000C000034B9C466044416010BD04C00140FC
:101DE0000040014080000B4B9C46604400290DD010
:101DF0000823002A0CD004221343026853400C220B
:101E00001340802252011043036070470023F0E723
:101E10000022F1E704C0014010B501238340D02225
:101E20001206936293610521FFF7C4FF10BD000005
:101E3000EFF3108072B6034B1B68002BFBD0BFF38F
:101E40005F8F70472C0100D0BFF35F8F024B0022E1
:101E50001A6080F3108870472C0100D0F8B5060096
:101E60000C001500FFF7E4FFE308F718F15C072208
:101E70002240012393400B4205D1DBB20B433B7060
:101E8000FFF7E2FFF8BD2100280001F03FFAF0B5AE
:101E900083B00600019114001F00FFF7C9FFBC4288
:101EA0000ED8E308F518F35C0721214001228A408F
:101EB0001A4201D00134F2E7D2B21A432A7001E08B
:101EC00001246442FFF7C0FF002C02DB200003B0B6
:101ED000F0BD019B002BF9D0089801F017FA000023
:101EE000034B1B6802201840431E9841C0B2704744
:101EF00000C0064000231F2B08D8054A9A189200FC
:101F0000BFF35F8F002111600133F4E77047C046D3
:101F100040000034054A1078431CDBB21370172BC5
:101F200002D9130010221A707047C0462004002006
:101F300000B583B00100044B00931F23182203480F
:101F4000FFF7A5FF03B000BDDCBB0010B4140020F8
:101F500070B505000C00080000F0CEFD200000F078
:101F6000B1FE0849200000F0F1FDFFF7D3FF064B5A
:101F70009C466044800068602C75A400034BE550CB
:101F800070BDC04695220010400000345C1900204E
:101F90000A4B1A68EFF3108172B61368002BFCD05D
:101FA000BFF35F8F054B1B68BFF35F8F00221A6082
:101FB00081F3108840BF0020002170478019002065
:101FC00010B5002922D003681B7B99421ED8174BFD
:101FD0009C466144090183689C4661440C684968D9
:101FE000002A19D003681B7B9A4215D883680F48D2
:101FF0008446624412019A18106853680200012056
:102000008B4201D80ED00020C0B210BD084B094A47
:102010003B21094801F0E0F8054B064A3B21064800
:1020200001F0DAF8A242EFD8EDE7C046FFFFFF0F5C
:1020300044BC001014BF00100CBC001010B50029E7
:102040001ED0037B99421BD84B005B18033B0468EE
:10205000A4466344002919D0002A1DD0914221D002
:10206000002A25D0047BA24222D8046850008018A0
:10207000033820188170197800291FD11A7010BDFB
:10208000104B114A6921114801F0A6F8104B114A72
:1020900070310E4801F0A0F80F4B0E4A71210B4829
:1020A00001F09AF80D4B0B4A7221084801F094F8A0
:1020B000044B054A6921054801F08EF841701A70F9
:1020C000DDE7C04678BC0010D4BE001094BC001000
:1020D000E0BC0010E0BE0010ECBC0010F8BC00102A
:1020E00070B506000D001400002914D0002A14D089
:1020F000806873689847002806D0220029003000C5
:10210000FFF79CFF280007E02A0021003000FFF7BE
:1021100095FF200000E0100070BD0800FCE7000003
:10212000F0B583B00500009201930AAB1C780BABAD
:102130001F78002C26D003685A7B944207D10123D4
:10214000002B19D1002C3BD1200003B0F0BD002C96
:102150000CD01A7B944209D81A6863001B19033B00
:10216000D3189B78002BEBD00123E9E73E4B3F4A85
:1021700069213F4801F030F83E4B3F4A65213F4816
:1021800001F02AF803689C7B002CDBD012D01A7B6C
:1021900094420FD862001219033A19688C466244BF
:1021A00051789973002900D1D9730023937053702B
:1021B0001370C7E72C4B2D4A69212D4801F00CF80C
:1021C000002C3AD02B681B7B9C4236D82C4BE31852
:1021D0001B01AA6894466344009A1A60019A5A60E7
:1021E000089A9A60099ADA602E68002C2BD030D0B9
:1021F000337B9C422DD863001B19033B3268944605
:10220000634400229A705A701A70717B2200300069
:10221000FFF766FF7073844200D095E7287D009A2F
:10222000019B00F0DBFC061E01D0002F17D00C9B99
:10223000002B00D188E71E7086E7124B124A3B2123
:102240000E4800F0C9FF114B114AA621084800F0C2
:10225000C3FF054B054A6921054800F0BDFF28680A
:10226000210000F01BFFE2E778BC0010D4BE001094
:1022700094BC001010BD00104CBF00100CBC00102E
:10228000FFFFFF0F44BC001014BF001008BC00107B
:10229000F4BE0010F0B5DE4657464E464546E0B562
:1022A0008BB00990002308938200B34BD6583700B7
:1022B00052E0B24BB24A3F21B24800F08DFFB24B20
:1022C000B24A3B21B24800F087FF002901D1002823
:1022D00069D10021404600F0D7FEA04219D12A68FA
:1022E0006B6806920793AB689846EB689A4643463C
:1022F000002B14D0002C18D03B681B7B9C4214D8B8
:10230000631EFA68D35C08931B02184338610020EF
:1023100015E0A04BA04A8C219D4800F05DFF9F4B2B
:102320009D4A90219A4800F057FF974B9C4A4021C4
:10233000974800F051FF00239A46984600207B689A
:10234000BFF35F8F00221A6086F310884346002B8C
:1023500032D1002800D107E100F0DAFB02000B1EA9
:10236000A7DB00200021069007917868EFF3108624
:1023700072B601680029FCD0BFF35F8F39688846C8
:102380004C7B002CD7D09AD0097B8C4297D88549BA
:1023900065182D01B9688C46654428686968801AFB
:1023A0009941002991DD2A686B68099800F016FCB4
:1023B00000239A469846C2E7089B1B02234399468E
:1023C00051461800C04705000E007A68EFF3108BE5
:1023D00072B6136859424B41D9B2002BF9D1BFF301
:1023E0005F8F002E26DB002E52DD3B69002B53D081
:1023F0004B4572D100F08CFB02000B1E73DB010019
:10240000180052197341984202D804D1914202D95E
:1024100001225242D317002B6BDB002104910131C2
:102420000391029451460191414600913800FFF713
:1024300077FE49E03B69002BD5D04B451CD1069A6D
:10244000079B10001900521BB341994202D804D1D6
:10245000904202D901225242D317002B12DB0021F5
:10246000049101310391029451460191414600913A
:102470003800FFF755FE27E04B4B474A9F21444861
:1024800000F0AAFE3D4B3E4A3F213E4800F0A4FE2C
:10249000002E01D1002DA8D13A68002C45D0537BE5
:1024A0009C422CD1012100293FD1D37B002B42D16A
:1024B000D473002C52D03B681B7B9C424ED8FA68E8
:1024C000013C135D0133135500233B617A68BFF370
:1024D0005F8F13608BF310883EE7334B2E4AA221A7
:1024E0002B4800F079FE254B254A3F21254800F076
:1024F00073FE224B224A3F21224800F06DFE002C41
:102500000DD0137B9C420AD863001B19033B106853
:10251000844663449B78002BC5D00121C3E7234B3D
:10252000234A6921234800F057FE234B234AF72111
:10253000204800F051FE002B0AD0117B8B4207D8B7
:102540005900CB18033B11688C4663445C70AFE7BD
:10255000164B174A6921174800F03EFE0A4B104AF5
:1025600040210B4800F038FE0BB03CBC9046994629
:10257000A246AB46F0BDC0465C19002038BD001035
:10258000BCBE001054BD001044BC001014BF0010AD
:102590000CBC00109CBD001064BF0010B4BD001046
:1025A00020BF0010FFFFFF0FC0BD001078BC00105F
:1025B000D4BE001094BC0010FCBD001004BF00107D
:1025C00010B50A4B5B68002B04D00A21084800F0C4
:1025D00099FB10BD054C2300064A1021206800F02D
:1025E00073FC03212000FFF7B3FCEEE72404002076
:1025F00080190020C11F001010B5064B5B68002B2E
:1026000001D0044810BD044B044A5C21044800F08A
:10261000E3FDC0462404002020BE001034BF00109B
:102620000CBC0010F0B5DE4657464E464546E0B5B8
:102630008BB0804616001F00149B9A46159B994646
:1026400016AB1B789B461F2302AA944663440022C4
:102650001A7032E0002809D042461268127B90427C
:1026600004D8421E4146C9688A5C48E0434B444A4C
:102670004021444800F0B0FD0798002B75D05B4620
:10268000002B72D04946D04704000D0003000B43D5
:1026900000D171E0002946DB00F03AFA06000F1E77
:1026A00055DB36196F41B94202D804D1B04202D984
:1026B00001267642F717002F4FDB43465A68EFF3A7
:1026C000108472B6136859424B41D9B20791002B5E
:1026D000F8D1BFF35F8F1F3302AA9446634404937B
:1026E0000023039302934B46019353460093320019
:1026F0003B004046FFF714FD031EABD102004146EC
:102700004968BFF35F8F00250D6084F31088002BAC
:1027100029D01F2302A98C4663441B78002BABD120
:1027200012021043A9E732003B00361BAF41BB4207
:1027300002D804D1B24202D901267642F717002FFF
:10274000BBDA114B114A3F21114800F045FD0E4BF9
:102750000E4A3F210E4800F03FFD0B4B0B4A3F2134
:102760000B4800F039FD012040420BB03CBC9046C4
:102770009946A246AB46F0BD0798F6E744BC001068
:1027800020BF00100CBC001038BD0010BCBE0010F3
:1027900054BD0010F8B504004268EFF3108572B61E
:1027A000136858424341D8B2002BF9D1BFF35F8F71
:1027B000CBB22268567BB3421BD10120002848D0FF
:1027C000206988422BD0090AC9B2002B2ED020687C
:1027D000007B83422AD8581EE668305C88422BD0A2
:1027E00000206368BFF35F8F00221A6085F31088B2
:1027F000F8BD002B0DD0167BB3420AD85E00F61848
:10280000033E1768BC466644B678002ED6D0012039
:10281000D4E7134B134A6921134800F0DDFC8521EE
:10282000124B134A4900134800F0D6FC124B134ACE
:102830004021104800F0D0FC1900100000F02EFCE0
:102840000028CED112210E4B094AFF31094800F071
:10285000C3FC23698B42C4D100232361C1E7C04676
:1028600078BC0010D4BE001094BC001044BE001010
:1028700080BF00100CBC001044BC001020BF001032
:1028800068BE0010F0B587B006000F00FDF7EBFC46
:1028900000281FD106246442E517A4197D41BD42DA
:1028A00002D803D1B44201D900240025002D14DB45
:1028B0000494059500F02CF902000B1E13DBA41AFA
:1028C0009D41002D17DC14D03000390000F02CF9A8
:1028D00007B0F0BD234800F019FD234B234A3F21E8
:1028E000234800F079FC204B204A3F21204800F08B
:1028F00073FC002CE8D0FFF77FFE002302930193C6
:102900001C4B0093049A059BFFF78CFE002818DAF5
:10291000DAE7002300E00023002BD5D1164B1A681C
:10292000EFF3108172B61368002BFCD0BFF35F8FFA
:10293000114B1B68BFF35F8F00221A6081F3108870
:1029400020BF0499059A0D4B5B6A9A42E3D80B4865
:10295000806A884203D29A42DBD00123DCE701235C
:10296000DAE7C0466CBE001038BD0010BCBE0010D7
:1029700054BD0010911F0010801900200040054038
:10298000F8B504000D0000F0C3F802000B1E10DBC8
:1029900020002900801859418B4202D804D182427C
:1029A00002D901204042C117002908DBFFF76AFF66
:1029B000F8BD064B064A3F21064800F00DFC034BCC
:1029C000034A3F21034800F007FCC04638BD001011
:1029D000BCBE001054BD001010B5FA2292000023B6
:1029E000002102F0D3FDFFF7CBFF10BD70B584B01E
:1029F00005000C00FFF700FE002302930193194B22
:102A000000932A002300FFF70DFE061E12DC164B72
:102A10005B6A9C4209D8144A926AAA4208D29C4234
:102A200001D0012002E0002000E0002004B070BDD1
:102A30000120FBE720BFFFF7DFFD3100FFF7AAFE13
:102A4000094B5B6A9C4209D8074A926AAA4207D29C
:102A50009C4201D00120E9E70020E7E70020E5E7FC
:102A60000120E3E7911F00100040054070B5EFF32F
:102A700005833F2018401038EFF3108472B6194BCD
:102A80001B68002BFBD0BFF35F8F0123190081402F
:102A9000154A5163154A12781500C5402B4214D0CF
:102AA000114B5D6A8300124E9B599D4206D38300F1
:102AB000104D5B598A430D490A7007E00A4A031D0D
:102AC0009B0099589950002300E00023BFF35F8FCB
:102AD000044A0021116084F31088002B00D098472D
:102AE00070BDC046280100D000400540B319002049
:102AF0008C190020A413002010B50100024A0348DD
:102B0000FFF7ACF910BDC04698BF0010B019002007
:102B1000044B5B6A034A906A1900536A9942F9D1DF
:102B20007047C04600400540074B5B6A8B4204D2A9
:102B3000054B5B6AFAE7044B5B6A8B4203D1024B9D
:102B40009B6A8342F7D370470040054070B504008C
:102B50000D00EFF3108672B61B4B1B68002BFBD0E9
:102B6000BFF35F8F002D1CD0200000F069FD174BD4
:102B700083420BD01900200000F06AFD01212000E3
:102B800000F04EFD0123A340114A1360A400114B35
:102B9000E550BFF35F8F0C4B00221A6086F310885C
:102BA00070BDA2000B4B0021D1500122A2400A4966
:102BB0000B7893430B700549200000F073FD002152
:102BC000200000F02DFDE4E7280100D06D2A001060
:102BD00038600540A4130020B3190020F0B5DE468C
:102BE00000B584B00400150001921E000293FFF7A7
:102BF0008FFF03958E4202D84ED185424CD9EFF318
:102C0000108B72B6274B1B68002BFBD0BFF35F8F76
:102C1000254A17780125A540EBB23B431370234B9F
:102C20005D63221D92000199D150A20020490298B3
:102C300050501B6A2B4212D11C4B1B6C2B4208D0EC
:102C40000020BFF35F8F174B00221A608BF31088B0
:102C500023E0184B184AC121184800F0BDFAFFF7CD
:102C600057FF8E4214D802D1039B834210D80E4BDB
:102C70001B78BB420ED00D4B1D625D631F200440CC
:102C80000123A3400E4A1360074B1F701E38D8E77C
:102C90000020D6E70120D4E7012004B004BC93460D
:102CA000F0BDC046280100D0B31900200040054007
:102CB0008C190020BCBF001024C00010E0BF001021
:102CC00080E200E010B5EFF3108472B60A4B1B6887
:102CD000002BFBD0BFF35F8F01238340074A1362B1
:102CE00007490A789A430A70BFF35F8F024B0022AC
:102CF0001A6084F3108810BD280100D00040054000
:102D0000B3190020024B9C46614489000160704762
:102D10004000003410B50400FFF7FCF8010020006B
:102D2000FFF7F0FFFF232371BFF35F8F10BD10B5D6
:102D30000400FFF7EFF801002000FFF7E3FFFF2397
:102D4000237100236371BFF35F8F10BD034B9C465B
:102D5000614489000160BFF35F8F70474000003419
:102D600010B504000120FFF7E3F801002000FFF791
:102D7000EDFF10BD10B500291ED0037B99421BD872
:102D80004B005B18033B0468A4466344002919D038
:102D9000002A1DD0914221D0002A25D0047BA242D6
:102DA00022D80468500080180338201881701978E0
:102DB00000291FD11A7010BD104B114A692111480A
:102DC00000F00AFA104B114A70310E4800F004FA74
:102DD0000F4B0E4A71210B4800F0FEF90D4B0B4AC8
:102DE0007221084800F0F8F9044B054A69210548AA
:102DF00000F0F2F941701A70DDE7C04678BC0010AF
:102E0000BCC1001094BC0010E0BC0010C8C1001090
:102E1000ECBC0010F8BC001070B506000D001400EA
:102E2000002914D0002A14D08068736898470028BD
:102E300006D0220029003000FFF79CFF280007E0A1
:102E40002A0021003000FFF795FF200000E010006D
:102E500070BD0800FCE7000010B500234373013388
:102E60008373037BC3730123027B9A4214D9002B23
:102E70000CD0027B934209D85A00D218033A016859
:102E80008C4662440133DBB25370EDE70B4B0C4AC6
:102E900069210C4800F0A0F9002A09D0924207D815
:102EA000016853009A18033A8A180023537010BD22
:102EB000024B034A6921034800F08EF978BC0010E8
:102EC000BCC1001094BC001010B501734260836057
:102ED000FFF7C2FF10BD000070B50400081E00D14E
:102EE00070BD002934D0237B994231D84B005B1848
:102EF000033B2268944663445A78002AF0D02DD0D0
:102F0000237B9A422AD853009B18033B21688C46A6
:102F100063445D7800215970002825D0237B9842B6
:102F200022D843001B18033B21688C4663440021D0
:102F3000597001002000FFF76FFF060029002000F4
:102F4000FFF7CAFF020031002000FFF765FFC7E767
:102F5000084B094A6921094800F03EF9054B064A29
:102F60006921064800F038F9024B034A69210348F9
:102F700000F032F978BC0010BCC1001094BC001005
:102F800070B505000C001600002928D02DD0037B59
:102F900099422AD84B005B18033B0268944663446D
:102FA0005A78002A27D19A78002A2AD11978FFF76F
:102FB00093FF0300002E03D0EA7B002A27D1EC7395
:102FC000002B37D1002C49D02B7B9C4246D82B6854
:102FD00061000C19033C1C190023637070BD224B67
:102FE000224A3821224800F0F7F8224B224A692170
:102FF000224800F0F1F8224B1C4A3A211C4800F00C
:10300000EBF8204B194A3B21194800F0E5F8002A5B
:103010000AD0297B8A4207D851008A18033A2968C6
:103020008C4662445470CAE7124B134A6921134814
:1030300000F0D2F8002B0BD02A7B934208D8430033
:103040001B18033B2A689446634400229A70B9E730
:10305000084B094A6921094800F0BEF8054B064AA9
:103060006921064800F0B8F808C10010DCC1001062
:1030700010C1001078BC0010BCC1001094BC00103E
:1030800048C1001070C1001070B504000A00457BF3
:103090002900FFF775FF6073280070BD70B504004C
:1030A000002966D0437B8B420ED0002911D0037BD0
:1030B00099420ED84B005B18033B0268D018837806
:1030C000002B0CD1002055E00121FFF7DDFF01208E
:1030D00050E0294B294A6921294800F07DF8002B4E
:1030E0001FD0227B93421CD825685A00D318033B7B
:1030F000EA18EB5C8B421AD0002B1BD0227B934248
:1031000018D85A00D318033B2268D21853788B4240
:1031100016D0002BF0D11B4B1B4A67211B4800F037
:103120005BF8154B154A6921154800F055F84378AE
:10313000137007E0104B114A6921114800F04CF858
:103140004378537000238370437001222000FFF7FF
:1031500017FF0200617B814205D02000FFF75CFE73
:103160006073012006E00A4B074A6D21074800F012
:1031700033F8002070BDC04678BC0010BCC1001000
:1031800094BC001094C10010F0C1001010C10010D8
:103190009CC1001000BEFDE703000A4A1268002A25
:1031A00008D0084A1068C318074A9A4206D3054A4D
:1031B00013607047034A05491160F2E7012040425D
:1031C000F7E7C0465015002000000420E41D002051
:1031D00010B5FFF7DFFF000010B582B00C0019003A
:1031E000002A0CD0084B002A0BD001920093230038
:1031F0000200064802F0A2FB0120FFF7CBFF044BC0
:10320000F1E7034AF1E7C04608C2001018C20010F7
:103210007CBB001070B52B4B2B4A1A602B4B2C4AF1
:103220001A602C4B9A682A4B9343FAD12A4C2B4BA9
:103230009C4202D208CC9847F9E700F001F9234BF1
:10324000274A1A60234B9B68DB43DB01FAD1254BED
:1032500040229A675A671A67DA66234C09E0234BC3
:10326000234A83212348FFF7B7FF2000FFF752FDD1
:103270000834214B9C4209D22368002BF5D0012B46
:10328000EDD12000FFF753FD0834F2E71B4CA16895
:103290001B4DC022280002F007FAA560FCF7E3FFEF
:1032A000002800D000BEFEF725FE00F049FBFFF726
:1032B00087F9144C144B9C4202D208CC9847F9E78A
:1032C00070BDC04600E00040BFCDFBFE00F00040F6
:1032D000FE7F3C0000C00040600D0020700D00200B
:1032E000FFFFFF0100F00140580D002048C2001010
:1032F000BCC2001068C20010600D002000ED00E0AC
:1033000000000020700D0020780D00200FB400B5E3
:1033100083B0084802F0E0FA049B002B07D005A90F
:103320000191180002F0E8FA034802F0D5FA0120F2
:10333000FFF730FFACC20010D0BB0010F8B5DE467E
:1033400057464E464546E0B505000F0092461E0022
:103350000A9B9E424ED3330E994636020A9A0023A8
:103360003000494601F060FD80466C006419A400FD
:103370002E4B9C4664446368834200D260602B1FDE
:10338000DBB29B46012B3BD9C0239B012343802208
:1033900012011A60AB00264A9958002905D05069DD
:1033A00001F000FD01300138FDD153465A01236878
:1033B0005A40E0231A4080235B0123431A605A4697
:1033C000012A28D980239B012343802212011A60FD
:1033D00043466360424600233000494601F024FD25
:1033E000AD00134B585101203CBC90469946A24673
:1033F000AB46F8BD0F4B104A2D211048FFF7ECFEED
:10340000012FC1D1C0239B01234303221A60A3686B
:10341000DB07FCD5C9E72168794003220A401A601E
:10342000A3680122BA401A42FAD0CBE700800040DC
:10343000B8140020CCC2001024C30010E0C2001059
:1034400030B583B00C2000F015FBFEF749FD0028D5
:103450000DD00023092B05D899002D4A2D488850FE
:103460000133F7E72A4B2C4A5A6203B030BD2B4B8D
:1034700000229A6700F070FB294B01221A60274B4B
:103480005B6C012BFBD1274B03221A60234B9B6BF8
:10349000012BFBD1022400940533234A0121234848
:1034A00000F05CFA00940523214A0121214800F034
:1034B00055FA214B0093002202210420FFF73EFF22
:1034C0001E4D00952B00002201210520FFF736FF3D
:1034D000104C00942300002200210720FFF72EFF4C
:1034E00000942300002200210820FFF727FF0A4B49
:1034F00000932300002200210920FFF71FFF009501
:103500002B00002200210620FFF718FFADE7C04680
:10351000B8140020006CDC021BB7000000800040E3
:103520003CB0004030B00040002F6859008002409D
:1035300000389C1C00C00240001BB70040597307B4
:103540008000014BC0587047B8140020074B9B689F
:10355000103080001950BFF35F8FBFF35F8F044BB3
:103560000021196082F310887047C04600ED00E02A
:10357000240100D010B5091A04394808090B05D1F7
:103580004005400D044B184380B210BD034B044A64
:103590008B210448FFF720FE00E0FFFF34C300103A
:1035A00014C5001044C3001010B5091A04394C08A2
:1035B000090B08D14905490D064A11430180064B04
:1035C0002343438010BD054B054A93210548FFF76F
:1035D00003FEC04600F0FFFF00F8FFFF34C30010F9
:1035E00020C5001044C3001001238340034A106823
:1035F0001840431E9841C0B27047C04600E100E049
:10360000002904D0034B1860034B18607047034B2C
:103610001860FBE780E200E000E100E080E100E00C
:1036200010B5012383401800FFF7EAFF10BD00002A
:1036300001238340014A13607047C04600E200E066
:10364000024B9B6810308000C058704700ED00E0CE
:1036500070B504000D00EFF3108672B60C4B1B68BA
:10366000002BFBD0BFF35F8F2000FFF7E9FF094B72
:10367000984201D0A84205D1320029002000FFF76E
:1036800065FF70BD044B054A6E210548FFF7A4FD98
:10369000240100D0CD01001084C30010F8C4001034
:1036A00044C30010F0B5CE46474680B583B006004F
:1036B0000D00EFF3108872B6574B1B68002BFBD040
:1036C000BFF35F8F554B9A6834001034A300D7586E
:1036D000534B9F4207D0AF4200D19BE00197514B23
:1036E000FB1A2F2B09D9424639003000FFF72EFF75
:1036F00003B00CBC90469946F0BD3000FFF774FF54
:10370000814600213000FFF78BFFBFF35F8FFCF78E
:10371000AAFD002801D0844219D10123019C9C43B9
:10372000414923003F4A9B1A5B415943090D49B265
:103730000022A368AB4212D00622A256002A0DDB5B
:1037400053009B189B002200364CE418F1E71E2121
:10375000364B374AFF313748FFF73EFD2200AB4278
:1037600051D106256557002D39DB6B005B199A0096
:103770002C4B9B189A68A260DA79E27106229A565D
:10378000A2719B795BB2002B10DABD200002A080F1
:103790006B005B199B00234AD318274A1178997153
:1037A000157049463000FFF73BFF9CE7201D6B007A
:1037B0005B199B001B4A9B181A1D9B88D90A1C2960
:1037C00007D159054915023149005118FFF7D2FEBA
:1037D000DDE71A4B1A4A99211648FFF7FDFC00282D
:1037E0000CD1002A08D0FF239371164B9380124B03
:1037F0001A78A2711970D4E7094FF8E7201D124911
:10380000FFF7D2FECDE7A921104B094A490009482C
:10381000FFF7E2FC024F66E7240100D000ED00E074
:10382000CD0100104C040020AAAA000098C400108A
:1038300048C5001044C30010B119002080C4001016
:1038400038C5001000BDFFFF86040020BCC4001076
:10385000F8B50400012606432D4BF31A2F2B28D868
:10386000FCF701FD00282BD0EFF3108772B6294B2F
:103870001B68002BFBD0BFF35F8F274D220024492C
:10388000521A524155432D0D6DB2244B9B68800056
:103890001B58B3421BD00022032A32D853009B1876
:1038A0009B001B49CB189B795BB2AB421FD0013206
:1038B000F2E778211A4B1B4AFF311B48FFF78CFCBB
:1038C000BD211A4B174A49001748FFF785FC134BD7
:1038D0009B68174A1A50174B1A78A2711D70BFF3D4
:1038E0005F8F0C4B00221A6087F31088F8BD080028
:1038F0005300991889004118FF268E710E4A8A805C
:10390000E9E78C210D4B074AFF310748FFF764FCBC
:103910004C040020240100D0AAAA000000ED00E021
:10392000C4C400105CC5001044C30010ECC40010F7
:10393000CD010010B119002000BDFFFF94C100109F
:103940000022044B02E0044902C30132072AFAD9DB
:103950007047C04600E400E080808080F0B5CE462D
:1039600000B504000E0091461F000C2001F01AFA69
:10397000050043011B1A9901C91AC90009188901D8
:10398000484601F00FFA0200103A98235B009A4271
:1039900033D87B1E062B36D8069B013B062B32D82C
:1039A000069B9F4235D34B461A09AA4237D33F04A0
:1039B000069B1D032F432368002B36DB234B9C42C1
:1039C00041D080256D01224B1D60224B1D60224A93
:1039D00092682B009343FAD12660A060221DC02379
:1039E0009B01134321221A602268002AFCDAE76057
:1039F00008221A6004BC9146F0BD184B184A1621E3
:103A00001848FFF7E9FB184B154A19211548FFF72D
:103A1000E3FB164B124A1F211248FFF7DDFB144B44
:103A20000F4A22210F48FFF7D7FB22683F2313409C
:103A3000B342C3D1A3681B051B0D8342BED1E3680B
:103A4000002FBBD1D6E78025AD01BCE700C0024006
:103A500000E0004000F0004000C0004078C50010C9
:103A600054C6001094C50010D4C5001020C6001024
:103A700038C6001080239B000343014AD36270477D
:103A800000800540024B1A68024B5A607047C046DE
:103A9000541900200080054010B50200164B80200C
:103AA000C0051860154B1648186000290AD0154B40
:103AB000E021C9041960002A09D1124B80221206A4
:103AC0001A6010BD0C4BE021C9041960F3E75001E6
:103AD000801A8000801800010B4B186080235B0463
:103AE000984202D3084B094A1A60FFF7CBFF054BF7
:103AF0008022D2051A60E4E700B0054008200140AA
:103B0000FCFF010000A0054054190020FFFFFF004A
:103B100010B5030010000C4A8024E4051460002B4B
:103B20000DD001221343094A094CD461094C5C4071
:103B30001462516293620021FFF7AEFF10BD034B88
:103B40000022DA61F7E7C04600B00540008005407A
:103B5000D3C007B02D3FF84F074BAA2212011A60BD
:103B60002132FF32DA60054B054A1A60024B5B686E
:103B7000002BFBDA7047C046004002400060024064
:103B800000B0FA009A4200D288547047704710B5CE
:103B9000002802D00B684968984710BD010000203A
:103BA0000A681378303BDBB2092B08D883001B1856
:103BB0005B00501C08601078C0183038F0E7704780
:103BC000F0B5DE4657464E464546E0B583B09346CF
:103BD0001F000C9B9A460D9C0E9B99460F9B9B07C2
:103BE00003D0B8460F00060022E00192A3468846A3
:103BF0004E46B9460700B44207D2551C4B464146D3
:103C00002020B84701342A00F5E73D004F465C46C6
:103C1000019B9B46B1464646B84637002E0007E05A
:103C2000013C551C5346185D43463900B0472A00F5
:103C3000002CF5D135003E0047460F9B9B0707D46B
:103C4000100003B03CBC90469946A246AB46F0BD7E
:103C5000B0464E46B9462F005D46531BB342EFD2E5
:103C6000541C4B4641462020B8472200F5E7F0B5EA
:103C7000CE46474680B585B0944698460C9D0D9C2F
:103C80000EAB1B789946109A119B129EB7071BD456
:103C9000002B08D0F70706D54F46002F02D10C376E
:103CA000374200D0013B944208D21F2C06D830275F
:103CB0002F550134F7E730272F550134F70703D587
:103CC0009C4201D21F2CF6D9F70615D5770505D4ED
:103CD000002C03D0944224D09C4222D00F9A102A68
:103CE0002BD00F9A102A30D00F9A022A35D01F2CD1
:103CF00002D830222A5501341F2C05D84A46002A02
:103D000031D02D222A550134039602930194009557
:103D100043466246FFF754FF05B00CBC90469946F7
:103D2000F0BD621E012C06D00F9F102F01D0140091
:103D3000D4E7023CD2E71400D0E7B206D1D41F2C5E
:103D4000CFD878222A550134D1E7B206CCD51F2C22
:103D5000CAD858222A550134C9E71F2CC7D8603267
:103D60002A550134C3E7720703D52B222A550134A3
:103D7000CAE73207C8D520222A550134C4E7F0B576
:103D8000DE4657464E464546E0B593B081468A46E4
:103D9000089209931CAB10CB1B789B461E9D219B60
:103DA0009846002C03D1102342469A439046802324
:103DB000DB0046461E4042461A4212D0002C22D05A
:103DC00000260EE03033D9B2771C0AAB9955290092
:103DD000200000F0E7FFAC4216D31F2F14D83E009E
:103DE00004002900200000F0DDFFCBB2092BE9D947
:103DF0004246920605D54121C918C9B20A39C9B24D
:103E0000E2E76121F8E7270043460693209B0593EC
:103E10001F9B049303955B46029301970AAB0093A3
:103E2000099B089A51464846FFF721FF13B03CBC56
:103E300090469946A246AB46F0BDF0B5DE465746E1
:103E40004E464546E0B595B0089009910A920B930D
:103E50001E9E1F9C20AB1B789B46229B9946239D50
:103E6000269B9A463300234303D1103352469A438C
:103E700092468023DB0057461F4052461A4219D013
:103E8000330023432DD0002714E03033DAB27B1CFB
:103E900098460CABDA554A462B003000210000F062
:103EA000C3FFA5421FD819D043461F2B1BD8474636
:103EB00006000C004A462B003000210000F0B4FF41
:103EC000D3B2092BE1D95246920605D54122D21828
:103ED000D2B20A3AD2B2DAE76122F8E7B145E3D9C1
:103EE00001E00023984653460693259B0593249BA7
:103EF00004934B4603935B460293434601930CABFA
:103F000000930B9B0A9A09990898FFF7B0FE15B029
:103F10003CBC90469946A246AB46F0BDF0B5DE46A5
:103F200057464E464546E0B591B083468A460C92C8
:103F300098461A9C08941B9D099522002B0020008E
:103F4000290001F0F0F9002800D0E5E001225242FA
:103F5000D34B2000290001F0E1F9002800D0DBE07C
:103F600001225242CF4B2000290001F0C1F9002864
:103F700000D0D1E000220023089D2800099E3100D6
:103F800001F0B6F9002800D0DDE008980999069004
:103F900007918023DB001E9A1A400D921E9A1A4246
:103FA00001D106231C930698079904000D000A000E
:103FB0000600024300D1CDE0080D4005400DBA4C8B
:103FC000A44660440A03120BB84B13431F0001F0D0
:103FD000BDF9B74AB74B01F04CF9B74AB74B01F0FE
:103FE00029F904000D000022B54B3000390001F022
:103FF0001CF9B44AB44B01F03CF902000B0020005C
:10400000290001F017F901F0B9F9814601F09EF994
:1040100004000D00AD4AAE4B01F02BF90022AD4B70
:1040200001F008F901F0AAF90600AB4AAB4B2000F9
:10403000290001F01EF904000D00300001F086F99E
:10404000A74AA84B01F015F902000B002000290037
:1040500001F0EBF804000D0002000B0001F009F97B
:104060000A900B91A04BF31800261F0522002B008D
:104070002000290001F0DEF80E900F9122002B00A5
:1040800000208021C90501F0D0F804000D000022B5
:10409000964B0A980B9901F0D2F80022944B01F04C
:1040A000C9F802000B000A980B9901F0C8F8002229
:1040B000904B01F0BFF802000B000A980B9901F039
:1040C000BEF802000B002000290001F0B3F8020046
:1040D0000B000E980F9901F0B2F80022734B01F01B
:1040E000A9F832003B0001F0C4F806000F000400FC
:1040F0000D00069A079B01F011F900282CD001232E
:104100005B429C46E1440022794B3000390001F0CB
:1041100096F804000D001FE01E9B04931D9B039363
:104120001C9B0293089A099B0092019343460C9AA8
:104130005146584600F0F8F811B03CBC90469946FC
:10414000A246AB46F0BD069580231B069C466644FE
:1041500007961EE7002399464B466333C62B1FD8AC
:1041600004261E9B1B0527D52B00234310D0624A33
:10417000624B0698079901F0C9F8002800D183E046
:1041800000225F4B0698079901F0B2F800287BD017
:104190001C9B4B4506DD4A46981A431E1C9303E0C0
:1041A0000526DEE700231C938023DB001E9A1A43BA
:1041B0001E920026002399461D9B9E426ED29F1B95
:1041C00002231E9A1A400A921E9A134202D0002E0F
:1041D00000D000274B46002B07D022002B0006986A
:1041E000079901F02CF80690079100220023089807
:1041F000099901F07DF8002800D085E0414B1E9A16
:104200001340049303971C9B0293069B079C009307
:10421000019443460C9A5146584600F085F8002E0A
:1042200000D189E71E9B9B067AD54525441C434651
:10423000020051462800D8474B46DA179B185340D6
:1042400005220592013E0496002203920A32029250
:104250004A46D00F019000934346220051465846EB
:10426000FFF78DFD0A9B002B00D165E702005F463A
:104270000C9E1D9D931BAB4254D2541C4346514689
:104280002020B8472200F5E71C9B002B94D00D9B03
:10429000002B91D01C9B013B1C938DE700278FE7DF
:1042A000FFFFEF7FFFFFEFFF01FCFFFF0000F03F8C
:1042B000FB799F501344D33FB3C8608B288AC63F15
:1042C0000000F83F61436F63A787D23F71A379096C
:1042D0004F930A400000E03F1655B5BBB16B02405A
:1042E000EF39FAFE422EE63FFF03000000002C40AB
:1042F00000002440000018402D431CEBE2361A3F1A
:1043000080842E41FFF7FFFF069C079D22002900B5
:1043100080200006844661440B00069207936DE7F7
:10432000652583E7100007E7F0B5DE4657464E46A1
:104330004546E0B595B00690079193469946209F73
:104340001E9A1F9B1000190000F0EDFF002831D1CC
:1043500001225242BF4B1E981F9900F0C9FF00284E
:1043600037D101225242BC4B1E981F9900F0D6FF54
:1043700000283DD10022B94B1E981F9900F0CEFFB6
:10438000002850D10022B64B1E981F9900F0B0FFB4
:10439000002848D1002200231E981F9900F0A8FF92
:1043A000002850D100239846229B5B0500D4B6E03C
:1043B000002458E0229B0393219B02930323019343
:1043C000A84B00934B465A4607990698FFF7F8FB0F
:1043D0000EE1229B0393219B029304230193A24BA2
:1043E00000934B465A4607990698FFF7E9FBFFE012
:1043F0000423229A1A4022990B4210D09B4B002A88
:104400000FD00422229903912199029101920093E5
:104410004B465A4607990698FFF7D2FBE8E0944BC3
:10442000EDE70322EEE7229B0493219B039302977F
:104430001E9B1F9C009301944B465A460799069871
:10444000FFF76CFDD4E01E9A1F9B0020002100F0B6
:10445000ECFE1E901F9101239846A5E70CAB30227D
:104460001A55013F01341F2C01D8092FF6D81E9888
:104470001F9900F083FF050000F068FF02000B00A9
:104480001E981F9900F0D1FEFA007A4B9B181A680B
:104490005B680A920B9300F0ECFE0890099100F023
:1044A00091FF060000F04EFF02000B0008980999EA
:1044B00000F0BBFE0890099100226F4B00F02EFF28
:1044C00000282ED00136300000F03CFF02000B0027
:1044D0000A980B9900F012FF002801D00135002640
:1044E000002F2CD1280000F031FF02000B001E9895
:1044F0001F9900F09AFE06000F0000225E4B00F0AC
:10450000F7FE002842D100225B4B3000390000F05A
:1045100005FF00283AD1EB0738D5013536E00627EC
:1045200046E70022544B0898099900F0E1FE002864
:10453000D6D1002E01D0F307D2D50136D0E7AA4656
:104540001F2C11D8013F0A21300000F02BFC651C04
:1045500030310CAB19550A21300000F023FC092E34
:1045600026D906002C00EBE7554604E00CAA3021C2
:1045700011551F0001341F2C02D87B1E002FF5D1CE
:104580001F2C03D80CAB2E221A5501341F2C14D823
:104590000A21280000F0DEFB661C30310CAB1955F7
:1045A0000A21280000F0D6FB051E05D03400EDE7F7
:1045B0002B0055461C00DEE734000323229A1340EB
:1045C000012B1CD01F2C06D84346002B32D00CAB3D
:1045D0002D221A550134229B0393219B02930194AF
:1045E0000CAB00934B465A4607990698FFF7E8FA3A
:1045F00015B03CBC90469946A246AB46F0BD219B07
:10460000002B13D04346002B02D10C3313420FD0A2
:10461000219B013B2193190003E00CAB30221A557A
:1046200001348C42CED21F2CF7D9CBE72199F8E781
:104630002199F6E7229B5B0704D50CAB2B221A5578
:104640000134C8E7229B1B07C5D50CAB20221A55A5
:104650000134C0E7FFFFEFFFFFFFEF7F65CDCD41E6
:1046600065CDCDC16CC6001070C6001064C60010C8
:1046700060C6001058C800100000E03FF0B5DE46EC
:1046800057464E464546E0B593B082468B46904627
:104690001193002900D1ECE200275546119B1878B0
:1046A000002800D1E8E2252809D07C1C43463A00C6
:1046B0005946A847119B013311932700EEE70133B8
:1046C000119300241DE00B00303BDBB2092B37D9DE
:1046D0002A293AD000230A93119B1A782E2A44D013
:1046E00000239A46119A1378683BD9B2122900D94F
:1046F00080E08B00CB49CB589F4601231C430132FD
:104700001192119A11780B00203BD8B21028DAD8F8
:104710008300C548C3589F4602231C4301321192AF
:10472000EFE704231C4301321192EAE708231C43FC
:1047300001321192E5E710231C4301321192E0E7A8
:1047400011A8FFF72BFA0A90C6E71C9B1A1D1C92B2
:104750001868002804DB0A90119B01331193BBE712
:1047600002231C4343420A93F6E78022D2001443FB
:104770005A1C11925A781300303BDBB2092B04D932
:104780002A2A07D000239A46ACE711A8FFF706FAB9
:104790008246A7E71C9B1A1D1C921868002804DBA0
:1047A0008246119B013311939CE70020F8E7802398
:1047B0005B002343511C119152786C2A01D01C00DC
:1047C00018E0C0239B001C430131119112E08023AB
:1047D0002343511C11915278682A01D01C0009E032
:1047E000C0231C430131119104E080235B001C4372
:1047F00001321192119B18780300253BDAB2532A3B
:1048000000D92CE29300894AD3589F4680239B000D
:104810001C4301321192EDE780235B001C430132FF
:104820001192E7E7782809D0582838D06F2838D077
:10483000622838D010239C430A2600E0102658280E
:1048400033D0692803D0642801D00C229443630537
:1048500001D50122944369282AD0642828D0A305D1
:1048600000D59FE0E30500D5B8E0630600D4CAE0B8
:104870001C9A111D1C911168FF220A4005940A9B85
:1048800004935346039302960023019300924346F8
:104890003A0059462800FFF772FA070027E0102671
:1048A000CDE70826CBE70226C9E720221443C8E754
:1048B000A30520D4E30550D4630666D51C9A111DC8
:1048C0001C911168FF220A40D317D1185940059452
:1048D0000A9B0493534603930296D20F01920091D0
:1048E00043463A0059462800FFF749FA0700119B52
:1048F00001331193D2E61C9BDA1D07218A43110074
:1049000008311C91116853689C46DB170C930D937A
:104910000C9A0D9B100048400E90624653400F9336
:104920000E980F990C9A0D9B801A99410E900F9139
:1049300008940A9B07935346069304960023059315
:104940006346DA0F02920090019143463A005946BD
:104950002800FFF772FA0700C9E71C9A111D1C9185
:104960001268D317D118594005940A9B04935346F3
:1049700003930296D20F0192009143463A005946A2
:104980002800FFF7FCF90700B1E7230605D51C9ABC
:10499000111D1C910023D25E96E71C9A111D1C91DB
:1049A000126891E71C9BDA1D07218A431100083128
:1049B0001C9108940A9B0793534606930496002380
:1049C00005930293136854680093019443463A0098
:1049D00059462800FFF731FA070088E71C9A111D95
:1049E0001C9105940A9B049353460393029600235B
:1049F00001931368009343463A0059462800FFF795
:104A0000BEF9070073E7230606D51C9A111D1C91F9
:104A100012681204120C31E71C9A111D1C911268C5
:104A20002CE7C04678C60010C4C6001008C70010A6
:104A300046281AD01C9B0733072293431A000832DA
:104A40001C9204940A9A0392524602925C681B6874
:104A50000093019443463A0059462800FFF764FC4E
:104A60000700119B0133119318E620231C43E1E753
:104A7000672801D0472802D180231B011C43452809
:104A800001D0472801D120231C431C9B0733072258
:104A900093431A0008321C9204940A9A03925246D5
:104AA00002925C681B680093019443463A005946A1
:104AB0002800FFF733FA0700119B01331193EDE54E
:104AC00002231A002240924623421FD001241C9B3D
:104AD0001A1D1C927A1C9146187843463A00594692
:104AE000A8475346002B16D1119B013311934F4613
:104AF000D4E5561C434659462020B84723003200CF
:104B00005C1C9D42F5D83D001700E0E701233A0008
:104B10002F000A9DF4E74A46A9460A9D06E0571C65
:104B2000434659462020C84734003A00661CA54237
:104B3000F5D84D469146D7E71C9B1A1D1C921B6861
:104B400099465346002B00D1013B4E4601E0013609
:104B500013003278002A02D05A1E002BF7D14B46A0
:104B6000F21A10928023DB0026001E401C4203D064
:104B7000524501D95346109302231A0022400B924A
:104B8000234205D03A0037004C46A946554620E05E
:104B90003A00109B5F46B3462E0006E0551C434684
:104BA00039002020B04723002A005C1C0A99994252
:104BB000F4D835005E46BB46109437004C46A946F3
:104BC000554606E01D000134561C43465946C84769
:104BD00032002078002804D0002FF4D06B1E002D66
:104BE000F0D117004D460B9B002B03D1119B0133D5
:104BF000119353E50A9F109B06E0561C4346594605
:104C00002020A847230032005C1C9F42F5D81700E3
:104C1000ECE721231C431C9B1A1D1C921B6800936C
:104C2000059408230493534603931023029300230F
:104C3000019343463A0059462800FFF7A0F80700C1
:104C4000119B0133119329E57C1C43463A005946D8
:104C50002520A847119B0133119327001EE57C1CDA
:104C600043463A005946A847119B01331193270048
:104C700014E50B4B9A460FE5AA4647450DD343462C
:104C80005A1E434659460020D047380013B03CBC5A
:104C900090469946A246AB46F0BD3A00F1E7C046C1
:104CA0008D3B00100EB410B585B0010007AC08CCE8
:104CB00003940122009452420348FFF7DFFC05B041
:104CC00010BC08BC03B01847853B001000B585B088
:104CD000029003910121009313004A4202A9024865
:104CE000FFF7CCFC05B000BD8F3B0010014804214C
:104CF000014B1847A00400201D4D001010B5010005
:104D000018231B8814221088984710BD10B5010085
:104D100018231B8816221088984710BDF0B5C64688
:104D200000B507000E0000250123984600E001357C
:104D3000B5420AD2AC003C192068FFF7DFFF2060C3
:104D40000028F4D100239846F1E7404604BC904681
:104D5000F0BD0000124A936F9B0815D29066D16691
:104D6000002905D0FFE7FFE7FFE7516F106F70479D
:104D700004B580210906C2175140002800D0C8435D
:104D800006F016FE002104BDF0B5146E556E576F87
:104D9000166FFFF7E3FF1466556657671667F0BD99
:104DA000000000D0114A936F9B0813D21066516621
:104DB000002905D0FFE7FFE7FFE7516F106F70474D
:104DC00004B5002801D00020C04306F0F1FD002109
:104DD00004BDC046F0B5146E556E576F166FFFF7E1
:104DE000E5FF1466556657671667F0BD000000D0F2
:104DF00094464E4A926F9208624601D230E0C04615
:104E0000F0B54A4EB56F6D08FCD3346E756E776F92
:104E1000366F00F025F89446444A14665566576785
:104E200016676246F0BDC0469446404A926F9208AB
:104E3000624601D258E0C046F0B53C4EB56F6D08F1
:104E4000FCD3346E756E776F366F00F04DF8944674
:104E5000364A14665566576716676246F0BDC04607
:104E6000002B24DB11D000293EDA00B5C9434042B3
:104E700000D1013100F038F8C943404200D101317E
:104E8000DB43524200D1013300BD002AEBD10028A0
:104E900001D1002905D00020C90FC90701D1C043A5
:104EA000410800B506F07CFD0022002300BD00B5DE
:104EB00000290ADBDB43524200D1013300F014F831
:104EC000C943404200D1013100BDC943404200D135
:104ED0000131DB43524200D1013300F005F8DB43DE
:104EE000524200D1013300BD002923D1002B18D13B
:104EF000002A0CD0BC460D4F38667A66002100238C
:104F0000FFE7FFE7FFE77A6F386F674670470028D3
:104F100001D00748010000B506F042FD0022002341
:104F200000BD02000B00002000217047000000D0EF
:104F3000FFFFFFFF002B00D0BFE0130C28D1002A99
:104F4000E7D080B4114F39667A66FFE7FFE730B4E7
:104F5000040C7B6F396F1B0423433B667A66FFE7C3
:104F6000FFE7FFE7C04684B27B6F3D6F1B0423431E
:104F70003B667A66FFE7FFE7C04600232C042D0C52
:104F80007A6F386F00196941B0BC7047000000D0DB
:104F9000F0B594460025140E01D112020835140F05
:104FA00001D112010435940F01D192000235D40FC2
:104FB00001D152000135D40B0134254F7C66254CBC
:104FC0003C660E0C93B2FFE7FFE7FFE73C6F6643DA
:104FD000360C7703BE467343DF0B5B04C01AB9413E
:104FE000130C7343DB18C91ACE086643360CB6445B
:104FF00093B273431F0F1B01C01AB941130C7343C3
:105000001F0B1B05C01AB941860D8F023E43664334
:10501000360C092D24DB520A7243801A7703460AA4
:105020006643360C16235B1BDE40DF40BF19644627
:105030006643821B7046043506330100D940A84000
:10504000C01900D30131A24206D20023F0BD0000F6
:10505000000000D0FFFFFFFF121B0130F3D3F1E788
:1050600009277F1BFE406446A2B27243801A00D219
:105070000139220C7243130C1204821A99410B005D
:105080007046043513370100F940A840801900D359
:105090000131002B02D1A2420AD2F0BD013000D36F
:1050A0000131121BFAD2013BF8D1A24200D2F0BD6D
:1050B000013000D30131121BF7E7F0B51C0C00D012
:1050C00080E00CB400251C0A04D11B02160E3343E9
:1050D000120208351C0B04D11B01160F33431201B9
:1050E00004359C0B04D19B00960F3343920002358C
:1050F000DC0B02D192185B4101351C00971864410A
:105100000134464F7C66464C3C660E0CFFE7FFE7D9
:10511000FFE7C0463C6F6643360C7703BE4697B246
:105120007743C01B00D20139C01B00D201399FB2A6
:105130007743C91BC91B170C77437E04FF0B801BE9
:10514000B941CE086643360C0C2D33DBB644120B46
:105150001F053A431B0B97B27743C01B00D201399E
:105160009FB27743C91B170C77433E043F0C801B4B
:10517000B941860D8F023E43664329277F1BFE40BF
:105180000C3D7746AF40BF1930BCA2B2ABB2724300
:105190007343801A9941220C7243130C1204801A33
:1051A000994102000B000137001BA941F9D2781E7A
:1051B0000021F0BD0C277F1BFE4077467F0BAF40E0
:1051C000FF19E0E700245D1C07D0144F7D663966A7
:1051D000FFE7FFE7FFE7FFE73C6F95B29EB265434D
:1051E0006643401BB141150C1E0C654366433604F3
:1051F0002F0C3E432D04401BB141994204D20200C2
:105200000B0020000021F0BD01D19042F7D3801A9D
:10521000994101349942F2D3F6E70000000000D032
:10522000FFFFFFFF48404140484018B4134B5B6804
:10523000019308BD18B4114B1B68019308BD944637
:105240000F4A926F920805D2624618B40B4BDB6886
:10525000019308BD0A4AF0B5146E556E576F166F6C
:105260006246FFF7F2FF064A1466556657671667EF
:10527000F0BD18B4014B9B68019308BDD01A002003
:10528000000000D0FFB550404240504059404B40D4
:10529000594000E0FFB5154F4C00640D03D0BC42EF
:1052A00004D10C0314D80020090D09055C00640D1D
:1052B00003D0BC4204D11C030AD800221B0D1B05DD
:1052C00001264B4009D44B4003D58B4200D182428A
:1052D000FFBD9942FCD19042FFBD0B43DB18034355
:1052E0001343F5D0C9434918FFBD0000FF07000074
:1052F00000B5FFF7CFFF804100BDC04600B5FFF706
:10530000C9FF01D9002000BD012000BD00B5FFF795
:10531000B9FF01D9002000BD012000BD00B5FFF795
:10532000B1FF804100BD012040054A00121804D899
:105330005A00121801D80020704701207047002041
:10534000704700000021002805D17047C117484070
:10535000401AFAD0C90713B5064B1B6898470CBC16
:10536000441CA2401005120B0349091B09051943EF
:10537000114310BD7C1900201F04000010B54C0023
:10538000620D8023D218DB00D21A5B057E2A10DD65
:105390009E3A13DACC170903490819435242D14007
:1053A000640001341532202A05DAD04008436043F6
:1053B00010BD002010BD0846604310BDC80FC018C6
:1053C000013810BD18B4024B5B6A019308BD0000A0
:1053D000D01A002018B4024BDB6F019308BD000007
:1053E000D01A002010B50148FDF790FFA8C80010A2
:1053F00070B513231C78012C0CD0012C13DC022C6B
:1054000002DC1F4A1F4B9A641F48FFF777FC1F4BB3
:10541000186070BD00231F2BEFD899001C48194A53
:1054200088500133F7E71B48FFF770FC05001A4866
:10543000FFF76CFC023803789B007F2B19DD80227C
:105440002900104800F030F9022CD8D1134B1A88EB
:10545000B5231B029A4209D1114B1A88114B9A426B
:1054600004D1114B1A88114B9A42C8D00020FDF785
:105470004DFF0F4B0F4A32210F48FDF7ADFEC046DE
:1054800059550010D01A00204C3300007C19002020
:10549000E553001053440000534600005438000008
:1054A000D8380000494600009C38000059460000EA
:1054B000C0C8001068C9001020C9001070B50B0DDD
:1054C0005B055B0D224A944663445A1C26DB5A1C3A
:1054D0002AD03422D21A002A1FDD3324E41A2023D2
:1054E0005B42E51827D40126AE4033000125A540D4
:1054F0002A0012184B4120214942651821D4022666
:10550000AE4031000225A5402800002544428D41CF
:105510001600264030002B40190070BD0022C90F34
:10552000CB0710001900F8E7CB0FDB070020094A72
:105530001A431100F1E720252D1B0126EE40330010
:10554000D4E720252D1B0226EE403100DAE7C046C5
:1055500001FCFFFF0000F03F07B56046002800D1C6
:1055600000BE01880A0A0230DF2AFAD1C9B28208D5
:1055700004D3028840880004104300E00068024A17
:105580005050039007BD0000D01A00205143434300
:10559000C9188C46110C83B24B4310B4040C614300
:1055A00092B280B2504362431C041B0C001910BC21
:1055B00059411304120CC018514161447047000056
:1055C000014BDB6F18470000D01B002010B50148CD
:1055D000FDF79CFE7CBB001070B513231D781848A6
:1055E000FFF794FB0400012D11D0012D09DDA31E4E
:1055F0001B789B007F2B1DDD80222100114800F0CD
:1056000053F81148FFF77AFB104B186070BD542215
:1056100001000C4800F048F8002300E001331F2B84
:10562000E3D89A0007495258002AF7D19A0008484F
:105630005050F3E7074B084A42210848FDF7CCFDDC
:1056400053460000D01B00204C3300007C19002082
:10565000CD5500107CC90010F8C90010B0C9001069
:1056600010B5040005F03EFD002804D00419034BDA
:105670009C4200D810BD0248FDF748FE00000420FF
:105680000CCA001010B505F037FD10BD014804210B
:10569000014B1847B00400201D4D0010014B1B6842
:1056A00018470000B0040020014B5B681847000059
:1056B000B004002010B50300080011001B689847D3
:1056C00010BD0000F8B507000D001600437C002B4C
:1056D00002D0002400200CE0036811002800984745
:1056E0002DE03B7C10E0022115483B689847601C88
:1056F0000134B44214DA002CF3DD2B19013B1B7882
:105700000D3B5A425341DBB22A5D0A2AF0D1002BED
:10571000EED1A042E7DA211A28183B689847E2E761
:10572000B04203DA311A28183B689847002E06DD8C
:10573000AD19013D2B780D3B5A4253413B74F8BDE6
:1057400090CA001070B505000368002B16D00C4BF2
:105750001C6805E0290004C92000FFF7B3FFE468D6
:10576000002C09D02368002BF9D0064B1B68002BB6
:10577000F0D0A342F3D1EDE700232B6070BDC0460B
:10578000481500204C15002070B505000C000B6872
:10579000802B05D021684B1C23606418257170BDD7
:1057A0000800FFF7CFFFF5E710B582B0D0231B0646
:1057B00000241C5701A9074806F002F9002806D169
:1057C000019B9C4203D0034806F00AF9012002B075
:1057D00010BDC046580D002010B5024806F0D8F89C
:1057E00010BDC046580D0020F0B5CE46474680B5E6
:1057F00083B006000D0090461C00FFF7D5FF8146E0
:105800006B1C05D0002C08D0194F1A4B1C6807E000
:10581000300005F053FF0500F4E7174FF5E7E468A3
:10582000002C17D02368002BF9D0144B1B68002BD9
:1058300001D0A342F3D12A0031002000B8474346EB
:10584000002BECD06B46D91D0A230B7001222000DF
:10585000B847E4E74B46002B07D1681E8541E8B204
:1058600003B00CBC90469946F0BDFFF7B5FFF4E7D6
:10587000B556001048150020C55600104C150020E4
:105880000C4B1A681300002B0BD0834202D01A0075
:10589000DB68F8E7002903D1DB68D3600023C3602D
:1058A00070470029FCD0002A01D0D060F8E7014BF6
:1058B0001860F5E74815002010B5064B1C6800E09D
:1058C000E468002C04D06368002BF9D09847F7E710
:1058D00010BDC0464815002070B5050005F0EEFE6D
:1058E00004000023012201002800FFF77DFFFFF7DD
:1058F000E3FF200070BD000070B5A2B004000E00F0
:10590000FFF752FF05008422002101A8FFF7C6FE21
:105910003300220001A90848FFF7D8F9040001A8C4
:10592000FFF710FFFFF7C8FF002D02D1200022B0C3
:1059300070BDFFF751FFF9E7895700100FB400B5AC
:1059400083B004A901C90191FFF7D6FF03B008BCD9
:1059500004B0184710B500F035F910BD70470000CD
:10596000014B00221A707047B21900204B79FF2BAF
:105970000CD18B79002B0BD1CB79012B0AD1082AC2
:105980000AD98A78054B1A70092000E00020704778
:105990000020FCE70020FAE70020F8E7B219002019
:1059A0000120704770B500292BD1117953791B0262
:1059B0000B43154909788B4201D0002070BD537804
:1059C000012B03D0022B15D00020F7E79378D27873
:1059D00012021343D2050BD55A0A012595407F24A4
:1059E0001C400A48FFF78AF9030021002800984765
:1059F0000025F4E7642200210020FEF789F8012049
:105A0000DCE70120DAE7C046B21900205542000069
:105A1000012303700048704794CA001010B50B783A
:105A20004A7812021A438B781B041A43CB781B0660
:105A300013439622D200934200D010BD0348FFF7D3
:105A40005DF90300002108009847C0465542000058
:105A500030B583B005000C0001A9184805F0B0FF6F
:105A6000002808D1D0231B061B68019A9A4221D036
:105A7000124805F0B5FF002001F018FE002807D1FC
:105A8000032464420D4805F083FF200003B030BDBD
:105A9000002001F02DFE002802D103246442F1E72A
:105AA00022002900002001F02FFE041EEAD1032469
:105AB0006442E7E703246442E7E7C0468419002014
:105AC00010B50021054805F07BFF002800D110BD6E
:105AD00001F084FB014805F05BFFF8E78419002022
